:10F000000C943E780C94F17C0C94F17C0C94F17C83
:10F010000C94F17C0C94F17C0C94F17C0C94F17CBC
:10F020000C94F17C0C94F17C0C94F17C0C94F17CAC
:10F030000C94F17C0C94F17C0C94F17C0C94F17C9C
:10F040000C94F17C0C94F17C0C94F17C0C94F17C8C
:10F050000C94F17C0C94F17C0C94F17C0C94F17C7C
:10F060000C94F17C0C94F17C0C94F17C0C94F17C6C
:10F070000C94F17C0C94F17C0C94F17C11241FBE57
:10F08000CFEFD0E1DEBFCDBF11E0A0E0B1E0ECE911
:10F09000FEEF02C005900D92AE30B107D9F722E025
:10F0A000AEE0B1E001C01D92AD33B207E1F70E94BE
:10F0B0005B780C944C7FCDB7DEB7C054D109DEBF6E
:10F0C000CDBF112484B714BE982F9C7011F00E94FC
:10F0D0008C7D82E08093C00088E18093C10086E04F
:10F0E0008093C20080E18093C4008EE00E94867D00
:10F0F00010923B0210923A020E94FE7C14E60E949B
:10F10000037D1150E1F71AE00E940E7D1150E1F7E6
:10F1100040E050E0BA0180E40E94BC7D182F8130AD
:10F1200009F049C04AEA51E060E070E088E40E94DA
:10F13000BC7D813009F0ACC08E010F5F1F4F6E01A6
:10F1400025E0C20ED11C78010E940F7DF70181934A
:10F150007F01CE16DF06C1F78B81813061F58C818E
:10F160008A3A49F570E1C72E77E2D72E40E050E0A9
:10F1700060E070E489EE0E94BC7D811116C040E021
:10F1800050E0BA018AE70E94BC7D811114C00E9440
:10F190000F7DF80181938F01EE15FF05C1F789817D
:10F1A0001CE086FD09C014E007C00E94037DF1E069
:10F1B000CF1AD108D9F610E010933C020E940E7DC0
:10F1C00082E090E01123E9F040E050E0BA01CE0186
:10F1D00001960E94427EC12CD12C7601813009F02B
:10F1E0008FC000E110E02EEB31E040E050E0BA01CA
:10F1F000CE0101960E94F67D892B09F471C081E051
:10F2000090E0892B09F06CC1E0903A02F0903B024B
:10F2100045E0C42ED12CE114F10409F43EC1F701FC
:10F220001182CE01C59698A78FA319A61AA61BA670
:10F230001CA610E0A12E11E0B12E00E2902EAFA18D
:10F24000B8A5FD01CD010B968E179F0709F0FBC0F5
:10F2500020E0E0E088E031E03E0FEA0DFB2DF11DFB
:10F260009081913208F4F1C09F3209F4EEC09E32D1
:10F2700009F485C3281708F0E8C0FD01E20FF11D6D
:10F280009083982F81E0820F282FE32F892FE3CFDF
:10F2900040E050E0BA0189EE0E94BC7D01E482307A
:10F2A00010F412E009EE60E1E62E67E2F62E40E08F
:10F2B00050E0BA01802F0E94BC7D81110AC040E05D
:10F2C00052E060E070E080E50E94BC7D811173CF68
:10F2D00073CF0E94037DF1E0EF1AF10841F76BCF85
:10F2E0008D81811103C086E090E08BCFC984DA84E0
:10F2F000EB84FC84B701A601CE0101960E94427EF8
:10F30000833009F47CCF8111EECF04E210E02DE0D0
:10F3100030E0B701A601CE0101960E94F67D892B4F
:10F3200009F06DCF2A853B8550E040E0211531057D
:10F330004105510521F4288D398D4A8D5B8DAC81B5
:10F34000B0E00E94FB7E4B015C010A811B8130E032
:10F3500020E0C00ED11EE21EF31EC0921A02D0920F
:10F360001B02E0921C02F0921D024981409312029E
:10F370006D817E8170931502609314028F81988550
:10F38000B0E0A0E00097A105B10521F48C899D892A
:10F39000AE89BF8954E0769567955A95E1F72B01C0
:10F3A000712C612C801B910BA20BB30BBC01CD0106
:10F3B000681979098A099B096419750986099709E9
:10F3C000242F30E050E040E00E94D97EDA01C901EC
:10F3D0000296A11DB11D8093160290931702A0936F
:10F3E0001802B0931902873F9F4FA105B10508F499
:10F3F0007ACF83E08093100288A199A1AAA1BBA132
:10F4000080931E0290931F02A0932002B0932102CA
:10F41000C40CD51CE61CF71C8C0C9D1CAE1CBF1C20
:10F420008092220290922302A0922402B09225029E
:10F430001092110280E192E090933B0280933A0295
:10F4400090E080E0DECE9192FFCEA30EB11C81E071
:10F45000913208F080E01B968C93CE0185960E9435
:10F46000487D6C01892BC9F42DA13EA12F70332753
:10F47000B5E0220F331FBA95E1F749A95AA96BA944
:10F480007CA900E210E0CE0101960E94F67D892B56
:10F4900009F447C0CC24C394D12CC11021C01092D0
:10F4A0000F0210920E02412C82E0582E9EE0692E2F
:10F4B00092E0792E25E0322E31E1232E80910E024A
:10F4C00090910F028115904F08F4E6C090E080E023
:10F4D000FC01259134912F3F3F4F11F0FC0109951C
:10F4E000F12CE12C33E0732E6624639445E0542E16
:10F4F00051E1452E0E94937D813409F088C10E941C
:10F50000937D182F0E94A67D82E0123821F083E0BF
:10F51000113809F486E00E949F7D80E10E949F7D62
:10F52000E9CF8981811104C0F3E0CF2ED12CB5CF72
:10F530008C8583FD13C00FA118A59E012F5F3F4F3F
:10F54000D801B801655F7F4FA617B70709F464C0FB
:10F55000F90141919F019D914917B1F36DA07EA0E2
:10F56000FFEF6F1A7F0A01F389A99AA9ABA9BCA979
:10F570000097A105B105C1F293012F703327232B0A
:10F58000D9F400913A0210913B020196A11DB11DE0
:10F5900089AB9AABABABBCAB6DA57EA58FA598A98B
:10F5A000F801611571058105910549F48481958102
:10F5B0006816790608F0B8CF7EA26DA255CF2281D9
:10F5C000E22FE150FF0BAF019301E4E03695279560
:10F5D000EA95E1F724233523232B71F70E94737EEC
:10F5E000623071058105910508F454CFF801068158
:10F5F000178120853185601771078207930708F00E
:10F6000093CF6DA77EA78FA798AB0E941D7D69AB96
:10F610007AAB8BAB9CABD0CFF80193858071911105
:10F6200016C009F481CF8D899E89B0E0A0E0DC018D
:10F63000992788274B8D5C8D70E060E0842B952B9B
:10F64000A62BB72B89A79AA7ABA7BCA7F8CD81118A
:10F650006BCF8D899E89B0E0A0E0DC0199278827D7
:10F660004B8D5C8D70E060E0842B952BA62BB72B27
:10F67000F701868F978FA0A3B1A38D8D9E8DAF8D3F
:10F68000B8A1828F938FA48FB58F168A178A108E98
:10F69000118E81E0818301CF40E051E06FEF70E097
:10F6A0008EE091E00E94BC7EE0903A02F0903B0236
:10F6B000F701828D938DA48DB58D46895789608D14
:10F6C000718D841B950BA60BB70B8F3F9105A10580
:10F6D000B10511F008F096C06C016EE0862E61E075
:10F6E000962E4AC062A173A184A195A10E94737E47
:10F6F0006BC062A373A384A395A3F70162A173A156
:10F7000084A195A10E941D7D61157105810591055A
:10F7100011F4F70160C0610F711D811D911DF7018A
:10F7200066A377A380A791A7F7012689378931704F
:10F730005201A21AB30ACA14DB0408F45601F701F5
:10F7400046A157A160A571A58501C4010E94F67D5F
:10F75000F701892B09F03FC086899789A08DB18D6B
:10F760008A0D9B1DA11DB11D868B978BA08FB18F1C
:10F770008A0C9B1CCA18DB08C114D10469F1F7017B
:10F7800086899789A08DB18DAC01BD015170662726
:10F790007727452B462B472B39F612811150AC01A8
:10F7A000BD0109E076956795579547950A95D1F77C
:10F7B000142309F0A2CF892B8A2B8B2B09F092CF2F
:10F7C000668D778D80A191A1F70162307105810569
:10F7D000910508F08ECF118280910E0290910F0258
:10F7E0004EE051E0DA019C012E503140F901EA0F60
:10F7F000FB1FE4916D91E613C7C06A167B06B1F753
:10F80000A895E5C080E091E0A0E0B0E065CF82344B
:10F8100021F484E10E94B27D80CE853411F485E02C
:10F82000F9CF853561F40E94937DE82EF12C0E947A
:10F83000937DF82AEE0CFF1C0E94A67D6ECE8635C5
:10F8400029F484E00E94B27D80E065CE843609F020
:10F8500058C00E94937DC82ED12CDC2CCC240E9451
:10F86000937DC82A0E94937D382E5601B39400E000
:10F8700011E048012FEF821A920A0E94937DF8014D
:10F88000808384018A149B04A1F70E94A67DF5E47D
:10F890003F1609F433C0F70177BEE89507B600FCC0
:10F8A000FDCFF701A0E0B1E09C919D012E5F3F4F9D
:10F8B00011968C918927982789270C0167BEE895B6
:10F8C0001124329642E0C41AD108D90169F7F70130
:10F8D00057BEE89507B600FCFDCF47BEE8951DCEA4
:10F8E0006081C701800F911F0E94CB7E0F5F1F4F69
:10F8F000F801F395C016D10699F70FCE10E000E09D
:10F90000F7CF843749F50E94937DC82ED12CDC2C8B
:10F91000CC240E94937DC82A0E94937D182F0E94B8
:10F92000A67D153471F4CE0CDF1C8701C8010E943E
:10F93000C37E0E949F7D0F5F1F4FC016D106B1F797
:10F94000ECCD8701F80185918F010E949F7DF1E048
:10F95000CF1AD108B9F7E1CD853751F40E94A67DC1
:10F960008EE10E949F7D86E90E949F7D8AE0D3CD33
:10F97000813509F061CF88E00E94867D5DCF8830B7
:10F9800009F063CD9BE080CC23E0FC0127BFE89524
:10F9900007B600FCFDCF30E020E0FA0161917191E3
:10F9A000AF01FC01E20FF31FA1E00B01A7BFE89537
:10F9B00011242E5F3F4F2115E1E03E0771F7FC0156
:10F9C00037BEE89507B600FCFDCF27BEE8958091CD
:10F9D0000E0290910F02939590930F0280930E0266
:10F9E0006DCD0C940078219A0895299A089529984C
:10F9F0000895299B0C94F57C0C94F77C239A259A06
:10FA0000279A2E9A089580E5319731973197000013
:10FA10008A95D1F7089502D02B9801C02B9A8FEFC9
:10FA200098E087FD2D9A87FF2D98880F1E99839562
:10FA30002F9A2F989A95A9F708950F931F93E09105
:10FA40003A02F0913B029B01AC012250310941097D
:10FA5000510986819781A085B1850297A109B109D5
:10FA6000281739074A075B0778F4A281B0E00E94A3
:10FA7000FB7E0289138924893589600F711F821FDB
:10FA8000931F1F910F91089560E070E0CB01F9CFB3
:10FA90000F931F93CF93DF93DC01E0913A02F09133
:10FAA0003B0211961C921E9214966D917D918D9140
:10FAB0009C911797613071058105910521F10681AF
:10FAC0001781208531856017710782079307D8F465
:10FAD000611571058105910521F466857785808919
:10FAE0009189ED01688779878A879B870E941D7DB0
:10FAF0006C877D878E879F8790E080E0DF91CF9134
:10FB00001F910F91089581E090E0F8CFE0E6F0E0DA
:10FB100098E1908380830895282E80E00E94867D5E
:10FB2000E0E0FF2709948091C00087FFFCCF80911F
:10FB3000C00084FD01C0A8958091C60008959091F1
:10FB4000C00095FFFCCF8093C60008950E94937D6E
:10FB5000803221F088E00E94867DFFCF84E10E9400
:10FB60009F7D0895CF93C82F0E94937DC150E1F7E8
:10FB70000E94A67DCF910895CF92DF92EF92FF92DF
:10FB8000CF93C82F6A017B0187FF09C040E050E096
:10FB9000BA0187E70E94BC7D823010F5CF770E94C2
:10FBA0000B7D8C2F0E94107D8F2D0E94107D8E2D3D
:10FBB0000E94107D8D2D0E94107D8C2D0E94107D45
:10FBC00085E9C03421F087E8C83409F081E00E945B
:10FBD000107DCAE00E940F7D87FF02C0C150D1F79F
:10FBE000CF91FF90EF90DF90CF900895B0E0A0E02C
:10FBF000ECEFFDE70C94107F7C01690180913C02E1
:10FC000083FD07C089E0440F551F661F771F8A9543
:10FC1000D1F781E50E94BC7D811108C0C0E4DCE918
:10FC20000E940F7D8F3F29F42197D1F7C1E0D0E0EA
:10FC300021C08E3FD9F7C2E0D2E0C01BD10BCC1956
:10FC4000DD09C114D10431F00E940F7D81E0C81A92
:10FC5000D108F7CF0E0D1F1D0E940F7DF701819374
:10FC60007F010E171F07C1F70E940F7D2197E1F753
:10FC7000D0E0C0E00E940E7DCE01CDB7DEB7E8E057
:10FC80000C942C7FB0E0A0E0E8E4FEE70C94107F39
:10FC9000EC016A017B0102E010E02EEF31E00E94EE
:10FCA000F67D892BD1F48881998185359A4AB9F4FA
:10FCB00022E530E0B701A601CE010E94F67D892B36
:10FCC00081F481E0288139812634314409F480E0CF
:10FCD000CDB7DEB7E8E00C942C7F83E0F9CF82E06B
:10FCE000F7CF81E0F5CFA4E0B0E0E9E7FEE70C94C0
:10FCF000107F623071058105910528F461E070E0A4
:10FD000080E090E035C0E0913A02F0913B02C6807D
:10FD1000D780E084F1846C157D058E059F0570F712
:10FD20002081233059F7AB01BC019A012F7733278B
:10FD3000220F331F220F331F97E076956795579553
:10FD400047959A95D1F7C284D384E484F5844C0D09
:10FD50005D1D6E1D7F1D04E010E0CE0101960E9426
:10FD6000F67D892B59F669817A818B819C819F7000
:10FD70002496E8E00C942C7FDC0101C06D93415087
:10FD80005040E0F70895F999FECF92BD81BDF89AF1
:10FD9000992780B50895262FF999FECF1FBA92BDF5
:10FDA00081BD20BD0FB6F894FA9AF99A0FBE01965C
:10FDB0000895A1E21A2EAA1BBB1BFD010DC0AA1FAC
:10FDC000BB1FEE1FFF1FA217B307E407F50720F0C4
:10FDD000A21BB30BE40BF50B661F771F881F991F3F
:10FDE0001A9469F760957095809590959B01AC0188
:10FDF000BD01CF0108950E943D7FA59F900DB49F46
:10FE0000900DA49F800D911D112408952F923F9273
:10FE10004F925F926F927F928F929F92AF92BF921A
:10FE2000CF92DF92EF92FF920F931F93CF93DF93C6
:10FE3000CDB7DEB7CA1BDB0B0FB6F894DEBF0FBE23
:10FE4000CDBF09942A88398848885F846E847D8470
:10FE50008C849B84AA84B984C884DF80EE80FD8072
:10FE60000C811B81AA81B981CE0FD11D0FB6F894E8
:10FE7000DEBF0FBECDBFED010895A29FB001B39FBD
:10FE8000C001A39F700D811D1124911DB29F700DA3
:0CFE9000811D1124911D0895F894FFCFEE
:0EFE9C004649524D574152452E42494E0000F4
:040000030000F00009
:00000001FF
