:1070000055C000006EC000006CC000006AC00000E7
:1070100068C0000066C0000064C0000062C00000DC
:1070200060C000005EC00000A7C400005AC000009D
:1070300058C0000056C0000054C0000052C00000FC
:1070400050C000005EC000004CC000004AC00000FC
:1070500048C0000046C0000044C0000042C000001C
:1070600040C000003EC000003CC000003AC000002C
:1070700038C0000036C0000034C0000032C000003C
:1070800030C000002EC000002CC000002AC000004C
:1070900028C0000026C0000024C0000022C000005C
:1070A00020C000001EC000001CC0000011241FBE34
:1070B000CFEFDAE0DEBFCDBF11E0A0E0B1E0ECE958
:1070C000FEE702C005900D92A83AB107D9F711E08A
:1070D000A8EAB1E001C01D92A83BB107E1F745D392
:1070E000DBC68ECFF89410926F0010928100109240
:1070F00085001092840081E085BF15BE0C940000CD
:1071000008951F920F920FB60F9211242F938F9311
:107110009F93EF93FF931092850010928400E0E01C
:10712000F0E0859194918F5F9F4F49F08091A80185
:107130009091A90101969093A9018093A801FF91D4
:10714000EF919F918F912F910F900FBE0F901F90F5
:10715000189584E08093E9000DC08091E8008B775A
:107160008093E80003C08EB3882351F08091E8003B
:1071700082FFF9CF8091E80085FFEFCF8091F10089
:107180000895982F83E08093E9008091E80085FDC1
:107190000DC08091E8008E778093E80003C08EB325
:1071A000882331F08091E80080FFF9CF9093F100BF
:1071B00008954F925F926F927F928F929F92AF92BB
:1071C000BF92CF92DF92EF92FF920F931F93CF93D4
:1071D000DF9384E08093E9008091E80082FF50C251
:1071E000B8DF182F853481F484E991E19093A901E7
:1071F0008093A80107B600FCFDCFF999FECF81E18D
:1072000080935700E89503C0843519F4A2DF8DE020
:107210000DC28C34E1F38035D1F3843721F484E45A
:10722000B0DF80E003C2813611F489E5FFC181340B
:10723000B1F48FDF182F8DDF90E0880F991FAA27F8
:1072400097FDA095BA2F312F330F20E0442737FD4B
:107250004095542F822B932BA42BB52BB8C180378C
:1072600011F483E5E3C1833549F4C0E0D1E08991AD
:1072700088DF21E0C730D207D1F7D9C1863521F4A4
:1072800081E37FDF80E3D2C1833731F487E879DFA0
:1072900085E977DF8EE1CAC18536B9F4E0E0F0E038
:1072A00093E085E090935700E89507B600FCFDCF8A
:1072B00080935700E89507B600FCFDCFE058FF4FDC
:1072C000A0E7E030FA0771F7A2CF823739F4E1E0A6
:1072D000F0E089E0809357008491A8C1863439F4A6
:1072E000E0E0F0E089E08093570084919FC18E3404
:1072F00039F4E3E0F0E089E080935700849196C18F
:10730000813539F4E2E0F0E089E080935700849120
:107310008DC1823631F489E534DF80E032DF80E8E8
:1073200085C1823419F0873609F0E5C01092A901B1
:107330001092A8010EDF082F0CDFF82E0ADF682E4E
:107340008554823008F071C1902F80E0CF2DD0E0BD
:10735000C82BD92B10926F00173609F04BC081E172
:1073600080935700E895DD24CC24C3943FC0E0907F
:10737000AA01F090AB010091AC011091AD01B6E40F
:107380006B16D9F4ED2DF0E0EE29FF29E4918E2F54
:10739000F8DEDD2081F082E090E0A0E0B0E0E80ED1
:1073A000F91E0A1F1B1FE092AA01F092AB01009385
:1073B000AC011093AD01DC2418C0D801C701B6950B
:1073C000A7959795879552D5DCDE82E090E0A0E006
:1073D000B0E0E80EF91E0A1F1B1FE092AA01F0920E
:1073E000AB010093AC011093AD012197209709F0F8
:1073F000BECF7DC08090AA019090AB01A090AC015F
:10740000B090AD0196E4691609F05DC083E0F40127
:1074100080935700E89507B600FCFDCF54C0F6E412
:107420006F1661F5772031F1E090AA01F090AB0181
:107430000091AC011091AD018CDED82ECC24852DAD
:1074400090E08C299D29F7010C0140925700E895A6
:10745000112482E090E0A0E0B0E0E80EF91E0A1FDF
:107460001B1FE092AA01F092AB010093AC011093B4
:10747000AD0102C06EDE582E742423C0E090AA0134
:10748000F090AB010091AC011091AD0116950795FC
:10749000F794E7945EDE682FC701F0D48091AA01CB
:1074A0009091AB01A091AC01B091AD010296A11DEC
:1074B000B11D8093AA019093AB01A093AC01B0934E
:1074C000AD01219704C05524772444244394209788
:1074D00009F0A5CF96E4691641F485E0F4018093A4
:1074E0005700E89507B600FCFDCF8DE04ADE82E04C
:1074F00080936F009CC0833471F40091AA011091B5
:10750000AB0127DE90E021E0F8010C012093570049
:10751000E89511247CCE833619F5E090AA01F0900D
:10752000AB010091AC011091AD0113DEF701E160F8
:1075300090E021E00C0120935700E895112482E0AF
:1075400090E0A0E0B0E0E80EF91E0A1F1B1FE092D9
:10755000AA01F092AB010093AC011093AD0157CE9C
:107560008D3661F4E091AA01F091AB0185E0809342
:107570005700E89507B600FCFDCF49CE823551F49F
:10758000E091AA01F091AB0105911491812FF9DDF1
:10759000802F4CC0843421F5E090AA01F090AB011B
:1075A0000091AC011091AD0116950795F794E79401
:1075B000D0DD682FC70162D48091AA019091AB0100
:1075C000A091AC01B091AD010296A11DB11D8093B7
:1075D000AA019093AB01A093AC01B093AD0117CE7B
:1075E000843609F5E090AA01F090AB010091AC015E
:1075F0001091AD01D801C701B695A79597958795CC
:1076000035D4BFDD82E090E0A0E0B0E0E80EF91EE6
:107610000A1F1B1FE092AA01F092AB010093AC017C
:107620001093AD0104C08B3111F08FE3AADD83E02C
:107630008093E9009091E8008091E8008E77809334
:10764000E80095FF04C010C08EB38823C9F0809174
:10765000E80080FFF9CF8091E8008E778093E80002
:1076600003C08EB3882361F08091E80080FFF9CFDA
:1076700084E08093E9008091E8008B778093E800B4
:10768000DF91CF911F910F91FF90EF90DF90CF90FE
:10769000BF90AF909F908F907F906F905F904F9032
:1076A00008959091B001892F8F77813249F58091AB
:1076B000B1018032A1F0813219F5913A09F580913A
:1076C000E800877F8093E8008DE091E067E070E05C
:1076D00004D28091E8008B778093E800089591327E
:1076E00079F48091E800877F8093E8008DE091E055
:1076F00067E070E056D28091E8008E778093E800D2
:10770000089582E061EC42E0AED083E061E842E1BE
:10771000AAD084E060E842E1A6C084B7877F84BF36
:1077200088E10FB6F89480936000109260000FBE5D
:1077300020E880E090E00FB6F894209361008093F9
:1077400061000FBE81E085BF92E095BFE1E6F0E009
:1077500020831082109289008AEF80938800909392
:107760006F0083E080938100EFC04091000850914A
:107770000108109201081092000894B714BE88E125
:107780000FB6F89480936000109260000FBE292F0E
:1077900030E0F901E270F07091FD18C090FF05C073
:1077A000859194918F5F9F4F81F423FF0FC080914B
:1077B000090190910A014817590741F0E0E0F0E013
:1077C000859194918F5F9F4F09F08CDCA6DF7894B0
:1077D0001092A9011092A8010BC0EBDC35D3809167
:1077E000A8019091A9018958934110F010921401B9
:1077F00080911401882389F78091E0008160809353
:10780000E00070DC80E090E00895FA01923049F0E9
:10781000933061F09130F9F485E191E022E130E0BC
:107820001EC087E291E02EE330E019C0882329F4DE
:1078300085E691E024E030E012C0813029F489E649
:1078400091E022E230E00BC0823029F48DE891E033
:1078500028E130E004C080E090E020E030E0918357
:107860008083C90108958093E9008091EB008160D5
:107870008093EB001092ED006093EC004093ED00DC
:107880008091EE00881F8827881F08958091B0019D
:1078900088238CF403C08EB38823B1F08091E80074
:1078A00082FFF9CF8091E8008B778093E8000895FC
:1078B0008EB3882349F08091E80080FFF9CF809152
:1078C000E8008E778093E8000895EF92FF920F937F
:1078D0001F9345D04CD008ED10E0F80180818F77E0
:1078E000808380818068808380818F7D808319BCC4
:1078F0001EBA1092AE0180EEE82EF12CF7018081C5
:107900008B7F8083F80180818160808380E060E0EC
:1079100042E0A9DFE1EEF0E080818E7F8083E2EE3D
:10792000F0E0808181608083808188608083F701BE
:1079300080818E7F8083F8018081806180831F91A8
:107940000F91FF90EF900895E7EDF0E08081816066
:1079500080838AE482BF81E08093AF01B6CFE8EDF7
:10796000F0E080818E7F80831092E2000895109273
:10797000DA001092E10008951F920F920FB60F9255
:1079800011242F933F934F935F936F937F938F9324
:107990009F93AF93BF93EF93FF938091DA0080FFA3
:1079A0001BC08091D80080FF17C08091DA008E7FC5
:1079B0008093DA008091D90080FF0BC080E189BDFF
:1079C00082E189BD09B400FEFDCF81E08EBB3BD2D0
:1079D00003C019BC1EBA37D28091E10080FF17C0E6
:1079E0008091E20080FF13C08091E2008E7F80933F
:1079F000E2008091E20080618093E2008091D800F3
:107A000080628093D80019BC85E08EBB1CD2809127
:107A1000E10084FF2CC08091E20084FF28C080E157
:107A200089BD82E189BD09B400FEFDCF8091D800F7
:107A30008F7D8093D8008091E1008F7E8093E1005C
:107A40008091E2008F7E8093E2008091E20081606D
:107A50008093E2008091AE01882331F48091E300AD
:107A600087FD02C081E001C084E08EBBECD1809133
:107A7000E10083FF21C08091E20083FF1DC080915F
:107A8000E100877F8093E10082E08EBB1092AE011F
:107A90008091E1008E7F8093E1008091E2008E7FF3
:107AA0008093E2008091E20080618093E20080E0B8
:107AB00060E042E0D8DEC7D1FF91EF91BF91AF9176
:107AC0009F918F917F916F915F914F913F912F91F6
:107AD0000F900FBE0F901F9018959C014091B6011A
:107AE0005091B7014617570718F4F90190E044C0C8
:107AF0006115710511F0AB01F8CF8091E8008E7728
:107B00008093E80040E050E0F0CF8EB3882309F482
:107B100044C0853009F443C08091E80083FF02C06F
:107B200081E008958091E80082FD31C08091E800F5
:107B300080FF22C08091F3009091F200782F60E0E6
:107B4000292F30E0262B372B07C081918093F1003D
:107B5000415050402F5F3F4F4115510519F02830DB
:107B6000310598F390E02830310509F491E08091D7
:107B7000E8008E778093E8004115510531F699238E
:107B800021F605C08EB3882341F0853041F0809105
:107B9000E80082FFF7CF80E0089582E0089583E057
:107BA00008959C016115710529F48091E8008B7797
:107BB0008093E800F90126C08EB3882391F18530C7
:107BC00091F18091E80083FF02C081E008958091E7
:107BD000E80082FFF1CF06C08091F10081936150EF
:107BE000704059F02091F3008091F200322F20E094
:107BF00090E0822B932B892B79F78091E8008B778B
:107C00008093E80061157105B9F605C08EB388232D
:107C100041F0853041F08091E80080FFF7CF80E0AF
:107C2000089582E0089583E008950F931F93DF93F2
:107C3000CF9300D0CDB7DEB7E0EBF1E08091F1005B
:107C4000819381E0E83BF807C9F72BDD8091E800DC
:107C500083FFE4C08091B0019091B101953009F4A7
:107C60006DC0963040F4913081F1913070F09330D6
:107C700009F0D4C02AC0983009F4A3C0993009F49F
:107C8000B2C0963009F0CAC07CC0803809F4C6C0C2
:107C9000823809F0C3C08091B40187708093E900F5
:107CA0008091EB001092E9002091E800277F20935B
:107CB000E80090E025E0969587952A95E1F7817098
:107CC0008093F1001092F10087C0882319F0823070
:107CD00009F0A4C08F71823009F0A0C08091B20178
:107CE000882331F52091B401277009F497C02093BF
:107CF000E9008091EB0080FF1BC0933021F480915C
:107D0000EB00806213C08091EB0080618093EB00F8
:107D100081E090E002C0880F991F2A95E2F78093D6
:107D2000EA001092EA008091EB0088608093EB00FB
:107D30001092E9008091E800877F51C0882309F004
:107D40006DC01091B2011F770FB7F8948091E800D1
:107D5000877F8093E8009ADD8091E80080FFFCCF68
:107D60008091E3008078812B8093E300806880938A
:107D7000E300112311F482E001C083E08EBB0FBF4A
:107D80004DC08058823008F049C08091B201909176
:107D9000B3016091B401AE014F5F5F4F36DDBC01AE
:107DA000009709F43BC08091E800877F8093E8004A
:107DB00089819A8192DE8091E8008B778093E80038
:107DC0002DC0803859F58091E800877F8093E800C6
:107DD0008091AE018093F1008091E8008E778093CE
:107DE000E80054DD1BC08823C9F49091B2019230A1
:107DF000A8F48091E800877F8093E8009093AE011B
:107E000045DD8091AE01882331F48091E30087FD48
:107E100002C081E001C084E08EBB73DC8091E80089
:107E200083FF0AC08091EB0080628093EB00809119
:107E3000E800877F8093E8000F900F90CF91DF914B
:107E40001F910F91089508951F938EB3882361F0B9
:107E50001091E9001092E9008091E80083FF01C0D1
:107E6000E4DE17701093E9001F910895F999FECF91
:107E700092BD81BDF89A992780B50895262FF9996A
:107E8000FECF1FBA92BD81BD20BD0FB6F894FA9AFD
:0C7E9000F99A0FBE01960895F894FFCFF8
:107E9C004341544552494E41007777000800000099
:107EAC0000000008011201100102000008412336F5
:107EBC000001000201000109023E000201008032B3
:107ECC000904000001020201000524001001042431
:107EDC0002040524060001070582030800FF0904BB
:107EEC000100020A0000000705040210000107054A
:107EFC008302100001040309042203410072006490
:107F0C0000750069006E006F0020004C0065006F6A
:107F1C00006E006100720064006F000000180341E5
:107F2C000072006400750069006E006F0020004C48
:087F3C00004C004300000000AE
:040000030000700089
:00000001FF
