:100000000C94EF000C9417010C9417010C94170139
:100010000C9417010C9417010C9417010C94170100
:100020000C9417010C9417010C9417010C941701F0
:100030000C9417010C9417010C9417010C941701E0
:100040000C9417010C9417010C9458030C9417018D
:100050000C94A0090C947A090C9417010C941701C4
:100060000C9417010C9417010C9417010C941701B0
:100070000C9417010C9417010C9417014C6F672016
:10008000617320496E666F207769746820686578AF
:100090002076616C75657320202020203A20257819
:1000A0002C2025580A004C6F6720617320496E662A
:1000B0006F20776974682062696E61727920766159
:1000C0006C75657320203A2025622C2025420A0099
:1000D0004C6F6720617320496E666F207769746882
:1000E000206C6F6E672076616C7565732020202010
:1000F0003A20256C2C20256C0A004C6F6720617318
:1001000020496E666F207769746820737472696E17
:10011000672076616C75652020203A2025730A00DF
:100120004C6F6720617320496E666F207769746831
:1001300020666C6F61742076616C75652020203AB2
:100140002025460A004C6F6720617320496E666F58
:10015000207769746820646F75626C652076616CC5
:1001600075652020203A2025440A004C6F672061E5
:10017000732044656275672077697468206D6978BB
:1001800065642076616C75657320203A2025642CA7
:100190002025642C20256C2C20256C2C2025742CEB
:1001A0002025540A004C6F672061732056657262E7
:1001B0006F7365207769746820626F6F6C20766159
:1001C0006C75652020203A2025540A0A0A006661D1
:1001D0006C736500747275650000101208121124AA
:1001E0001FBECFEFD0E1DEBFCDBF29E0A6E5B7E06F
:1001F00001C01D92A537B207E1F717E0A0E0B1E01A
:10020000ECE4FEE202C005900D92A635B107D9F7E5
:1002100010E0CEEED0E004C02197FE010E947114E0
:10022000CD3ED107C9F70E947E0F0C9419170C948C
:100230000000CF92DF92EF92FF920F931F93CF9324
:10024000DF936C017A018B01C0E0D0E0CE15DF05B1
:1002500081F0D8016D918D01D601ED91FC91019055
:10026000F081E02DC6010995892B11F02196EECF82
:100270007E01C701DF91CF911F910F91FF90EF9009
:10028000DF90CF900895FC01538D448D252F30E0F1
:10029000842F90E0821B930B541718F081549F4FCA
:1002A000089501970895FC01918D828D981799F01A
:1002B000828DDF01A80FB11D5D968C91228D2F5F7D
:1002C00091E0203C08F490E030EC939F2019112439
:1002D000228F90E008958FEF9FEF0895FC01918D9C
:1002E000828D981731F0828DE80FF11D858D90E099
:1002F00008958FEF9FEF0895FC01918D228D892F36
:1003000090E080549F4F821B910960EC70E00E9446
:10031000271408958DEA97E00E947C0121E0892B43
:1003200009F420E0822F0895FC01848DDF01A80FDD
:10033000B11DA352BF4F2C91848D90E0019660ECCB
:1003400070E00E943B14848FA689B7892C93A08902
:10035000B1898C91837080648C93938D848D981374
:1003600006C00288F389E02D80818F7D8083089507
:10037000FF920F931F93CF93DF93EC0181E0888F5F
:100380009B8D8C8D981305C0E889F989808185FD46
:1003900028C0162F8B8D90E0019660EC70E00E94D3
:1003A0003B14082FF82E8C8DF8120CC00FB607FCEA
:1003B000FACFE889F989808185FFF5CFCE010E94C7
:1003C0009401F1CF8B8DFE01E80FF11DE352FF4F39
:1003D00010839FB7F8940B8FEA89FB898081806234
:1003E0000AC09FB7F894EE89FF896083E889F9898C
:1003F00080818370806480839FBF81E090E0DF9183
:10040000CF911F910F91FF900895CF93DF93EC014F
:10041000888D8823C9F0EA89FB89808185FD05C024
:10042000A889B9898C9186FD0FC00FB607FCF5CF5E
:10043000808185FFF2CFA889B9898C9185FFEDCFA6
:10044000CE010E949401E7CFDF91CF91089580E023
:1004500090E0892B21F00E948A0181110DC080E07B
:1004600090E0892B71F080E090E0892B51F00E94A0
:100470000000811104C008950E940000F0CF0C9488
:1004800000000895DC0150962D913C9151971C96E7
:10049000ED91FC911D97848195812817390788F487
:1004A0000190F081E02D309729F410925607E6E58F
:1004B000F7E002C0E20FF31F8081082E000C990BB9
:1004C00008958FEF9FEF0895DC0150962D913C9198
:1004D00051971C96ED91FC911D9784819581281769
:1004E0003907E0F4C901019651969C938E93509779
:1004F000848195812817390720F4808191810097A4
:1005000029F410925607E6E5F7E003C0FC01E20F7C
:10051000F31F8081082E000C990B08958FEF9FEF39
:100520000895FC01A485B58514968D919C9115972D
:1005300020893189821B930B0895089580E090E013
:1005400008950E9404170F931F93CF93DF93EC013C
:1005500088819981009729F02A813B8126173707E6
:1005600088F48B016F5F7F4F0E943E16009761F009
:10057000998388831B830A832C813D81232B11F46B
:10058000FC01108281E001C080E0DF91CF911F91DA
:100590000F910895FC0180819181009711F00C94D6
:1005A000B5150895EF92FF920F931F93CF93DF93AA
:1005B00000D0CDB7DEB7FC010485158569831A82AA
:1005C000F801E480F580FFEFEF1AFF0AB701C801D8
:1005D0000E94A302882379F0F8012081318184816F
:1005E0009581BE016F5F7F4F820F931F0E9412178C
:1005F000F801F582E48281E090E00F900F90DF91A6
:10060000CF911F910F91FF90EF9008950F931F933B
:10061000CF93DF938C01FC01C485D58560E070E049
:10062000CE010E94A3022881398181110DC02115BC
:10063000310519F0C9010E94B515198218821D8271
:100640001C821B821A8207C01D821C826FE976E021
:10065000C9010E941217F801118A108ADF91CF9107
:100660001F910F9108953FB7F89480917207909170
:100670007307A0917407B091750726B5A89B05C0B4
:100680002F3F19F00196A11DB11D3FBFBA2FA92F11
:10069000982F8827820F911DA11DB11DBC01CD018E
:1006A00042E0660F771F881F991F4A95D1F708957A
:1006B0001F920F920FB60F9211242F933F938F9397
:1006C0009F93AF93BF9380916E0790916F07A09116
:1006D0007007B091710730916D0723E0230F2D371C
:1006E00020F40196A11DB11D05C026E8230F029636
:1006F000A11DB11D20936D0780936E0790936F0726
:10070000A0937007B093710780917207909173075F
:10071000A0917407B09175070196A11DB11D80933A
:10072000720790937307A0937407B0937507BF91F6
:10073000AF919F918F913F912F910F900FBE0F908E
:100740001F901895EF92FF920F931F93CF93DF9313
:10075000EC01198218821B821A821D821C8261158B
:10076000710549F18B01FB0101900020E9F73197F8
:100770007F01E61AF70AB7010E94A3022881398196
:1007800081110DC02115310519F0C9010E94B5155F
:10079000198218821D821C821B821A820CC0FD8263
:1007A000EC82B801C901DF91CF911F910F91FF90A9
:1007B000EF900C941217DF91CF911F910F91FF9042
:1007C000EF900895CF92DF92EF92FF920F931F93D5
:1007D000CF93DF93CDB7DEB728970FB6F894DEBF7F
:1007E0000FBECDBF8C017B01DB011C96ED91FC910E
:1007F0001D9750962D913C915197848195816FE979
:1008000076E02817390708F05CC0CE0101960E94F7
:10081000A203F701808991890484F585E02D248164
:100820003581CD80DE8082179307A8F59C012F5F6C
:100830003F4FD70151963C932E9350972481358199
:100840008217930728F4208131812115310529F47D
:1008500010925607E6E5F7E003C0F901E80FF91F2B
:1008600080818F831886BFEFCB1ADB0AB601CE01D9
:1008700001960E94A302882361F229813A818D8129
:100880009E81BE01695F7F4F820F931F0E941217E6
:10089000DE82CD82BECF89819A81F80191838083E7
:1008A0008B819C8193838283D582C4821A82198230
:1008B0001C821B821E821D82CE0101960E94CA02EA
:1008C00003C0C8010E94A203C80128960FB6F8947D
:1008D000DEBF0FBECDBFDF91CF911F910F91FF9073
:1008E000EF90DF90CF900895CF93DF9300D000D0AA
:1008F00000D0CDB7DEB788E891E09F938F931F9229
:1009000084E08F938AE499E09F938F930E94360E40
:1009100063E579E0CE0101960E94E20369817A8164
:100920002CE230E040E050E084E891E00E94880D45
:10093000CE0101960E94CA020F900F900F900F9067
:100940000F900F9026960FB6F894DEBF0FBECDBF66
:10095000DF91CF910895CF93DF9300D000D000D0E6
:10096000CDB7DEB780916A078F93809169078F9327
:1009700080916C078F9380916B078F9389E991E049
:100980009F938F931F9284E08F938AE499E09F93C3
:100990008F930E94360E63E579E0CE0101960E94A6
:1009A000E20369817A8121E330E040E050E083ECAA
:1009B00091E00E94880DCE0101960E94CA020FB6F6
:1009C000F894DEBF0FBECDBF26960FB6F894DEBFFB
:1009D0000FBECDBFDF91CF910895CF93DF9300D0AD
:1009E00000D000D0CDB7DEB780916B0790916C0737
:1009F0009F938F939F938F938CE790E09F938F9318
:100A00001F9284E08F938AE499E09F938F930E94D2
:100A1000BA0E63E579E0CE0101960E94E203698196
:100A20007A8125E330E040E050E085EF91E00E94DC
:100A3000880DCE0101960E94CA020FB6F894DEBF5F
:100A40000FBECDBF26960FB6F894DEBF0FBECDBF4A
:100A5000DF91CF910895CF93DF9300D000D000D0E5
:100A6000CDB7DEB78091690790916A079F938F9306
:100A70009F938F9385E292E09F938F931F9284E0E0
:100A80008F938AE499E09F938F930E94360E63E5DB
:100A900079E0CE0101960E94E20369817A8129E31F
:100AA00030E040E050E08FE492E00E94880DCE01FB
:100AB00001960E94CA020FB6F894DEBF0FBECDBFEA
:100AC00026960FB6F894DEBF0FBECDBFDF91CF9153
:100AD0000895CF93DF9300D000D000D0CDB7DEB71C
:100AE00080916B0790916C079F938F939F938F9347
:100AF00086EA90E09F938F931F9284E08F938AE41D
:100B000099E09F938F930E94BA0E63E579E0CE013E
:100B100001960E94E20369817A812DE330E040E092
:100B200050E083E892E00E94880DCE0101960E9479
:100B3000CA020FB6F894DEBF0FBECDBF26960FB621
:100B4000F894DEBF0FBECDBFDF91CF910895CF9354
:100B5000DF9300D000D000D0CDB7DEB78091690719
:100B600090916A079F938F939F938F938DEB92E061
:100B70009F938F931F9284E08F938AE499E09F93D1
:100B80008F930E94360E63E579E0CE0101960E94B4
:100B9000E20369817A8121E430E040E050E087EEB1
:100BA00092E00E94880DCE0101960E94CA020FB603
:100BB000F894DEBF0FBECDBF26960FB6F894DEBF09
:100BC0000FBECDBFDF91CF910895CF93DF9300D0BB
:100BD00000D000D0CDB7DEB7809164078F938091AD
:100BE00063078F93809162078F93809161078F9342
:100BF000809168078F93809167078F938091660734
:100C00008F93809165078F9380ED90E09F938F93F2
:100C10001F9284E08F938AE499E09F938F930E94C0
:100C2000BA0E63E579E0CE0101960E94E203698184
:100C30007A8125E430E040E050E08FE293E00E94CA
:100C4000880DCE0101960E94CA020FB6F894DEBF4D
:100C50000FBECDBF26960FB6F894DEBF0FBECDBF38
:100C6000DF91CF910895CF93DF9300D000D000D0D3
:100C7000CDB7DEB780915F071F928F938091600799
:100C80001F928F9389E693E09F938F931F9284E046
:100C90008F938AE499E09F938F930E94360E63E5C9
:100CA00079E0CE0101960E94E20369817A8129E40C
:100CB00030E040E050E083E993E00E94880DCE01EF
:100CC00001960E94CA020FB6F894DEBF0FBECDBFD8
:100CD00026960FB6F894DEBF0FBECDBFDF91CF9141
:100CE0000895CF93DF9300D000D000D0CDB7DEB70A
:100CF00083EC93E09F938F938AEF90E09F938F9381
:100D00001F9284E08F938AE499E09F938F930E94CF
:100D1000BA0E63E579E0CE0101960E94E203698193
:100D20007A812DE430E040E050E084ED93E00E94D1
:100D3000880DCE0101960E94CA020FB6F894DEBF5C
:100D40000FBECDBF26960FB6F894DEBF0FBECDBF47
:100D5000DF91CF910895CF93DF9300D000D000D0E2
:100D6000CDB7DEB7EBE6F9E081818F9380818F9379
:100D70008CE094E09F938F931F9284E08F938AE49A
:100D800099E09F938F930E94360E63E579E0CE0140
:100D900001960E94E20369817A8121E530E040E01A
:100DA00050E084ED93E00E94880DCE0101960E94F0
:100DB000CA020FB6F894DEBF0FBECDBF26960FB69F
:100DC000F894DEBF0FBECDBFDF91CF910895CF93D2
:100DD000DF9300D000D000D0CDB7DEB780915E07A2
:100DE0008F9380915D078F9380915C078F938091A3
:100DF0005B078F9380E291E09F938F931F9284E033
:100E00008F938AE499E09F938F930E94BA0E63E5D3
:100E100079E0CE0101960E94E20369817A8125E59D
:100E200030E040E050E082E394E00E94880DCE0183
:100E300001960E94CA020FB6F894DEBF0FBECDBF66
:100E400026960FB6F894DEBF0FBECDBFDF91CF91CF
:100E50000895CF93DF9300D000D000D0CDB7DEB798
:100E600080915E078F9380915D078F9380915C07DF
:100E70008F9380915B078F938EE594E09F938F9380
:100E80001F9284E08F938AE499E09F938F930E944E
:100E9000360E63E579E0CE0101960E94E203698196
:100EA0007A8129E530E040E050E082E394E00E945E
:100EB000880DCE0101960E94CA020FB6F894DEBFDB
:100EC0000FBECDBF26960FB6F894DEBF0FBECDBFC6
:100ED000DF91CF910895CF93DF9300D000D000D061
:100EE000CDB7DEB780915A078F93809159078F93C2
:100EF000809158078F93809157078F9385E491E0F5
:100F00009F938F931F9284E08F938AE499E09F933D
:100F10008F930E94BA0E63E579E0CE0101960E949C
:100F2000E20369817A812DE530E040E050E083E81A
:100F300094E00E94880DCE0101960E94CA020FB66D
:100F4000F894DEBF0FBECDBF26960FB6F894DEBF75
:100F50000FBECDBFDF91CF910895CF93DF9300D027
:100F600000D000D0CDB7DEB780915A078F93809123
:100F700059078F93809158078F93809157078F93CC
:100F800082EB94E09F938F931F9284E08F938AE487
:100F900099E09F938F930E94360E63E579E0CE012E
:100FA00001960E94E20369817A8121E630E040E007
:100FB00050E083E894E00E94880DCE0101960E94E3
:100FC000CA020FB6F894DEBF0FBECDBF26960FB68D
:100FD000F894DEBF0FBECDBFDF91CF910895CF93C0
:100FE000DF9300D000D000D0CDB7DEB780915F078F
:100FF0001F928F93809160071F928F938091640757
:101000008F93809163078F93809162078F93809174
:1010100061078F93809168078F93809167078F9303
:10102000809166078F93809165078F9380916A07FF
:101030008F93809169078F9380916C078F93809134
:101040006B078F938BE691E09F938F931F9284E0C1
:101050008F938AE499E09F938F930E94BA0E63E581
:1010600079E0CE0101960E94E20369817A8126E649
:1010700030E040E050E088ED94E00E94880DCE0121
:1010800001960E94CA020FB6F894DEBF0FBECDBF14
:1010900026960FB6F894DEBF0FBECDBFDF91CF917D
:1010A0000895CF93DF9300D000D000D0CDB7DEB746
:1010B000809160071F928F9388E295E09F938F93B2
:1010C0001F9285E08F938AE499E09F938F930E940B
:1010D000360E63E579E0CE0101960E94E203698154
:1010E0007A812AE630E040E050E08EE495E00E940C
:1010F000880DCE0101960E94CA020FB6F894DEBF99
:101100000FBECDBF26960FB6F894DEBF0FBECDBF83
:10111000DF91CF910895CF93DF9300D000D000D01E
:10112000CDB7DEB7809160071F928F938AE795E075
:101130009F938F931F9283E08F938AE499E09F930C
:101140008F930E94360E63E579E0CE0101960E94EE
:10115000E20369817A812EE630E040E050E080EAE7
:1011600095E00E94880DCE0101960E94CA020FB63A
:10117000F894DEBF0FBECDBF26960FB6F894DEBF43
:101180000FBECDBFDF91CF910895CF93DF9300D0F5
:1011900000D000D0CDB7DEB7809160071F928F934B
:1011A0008CEC95E09F938F931F9282E08F938AE45B
:1011B00099E09F938F930E94360E63E579E0CE010C
:1011C00001960E94E20369817A8122E730E040E0E3
:1011D00050E082EF95E00E94880DCE0101960E94BA
:1011E000CA020FB6F894DEBF0FBECDBF26960FB66B
:1011F000F894DEBF0FBECDBFDF91CF910895CF939E
:10120000DF9300D000D000D0CDB7DEB7809160076B
:101210001F928F938EE196E09F938F931F9281E0B0
:101220008F938AE499E09F938F930E94360E63E533
:1012300079E0CE0101960E94E20369817A8126E776
:1012400030E040E050E084E496E00E94880DCE015A
:1012500001960E94CA020FB6F894DEBF0FBECDBF42
:1012600026960FB6F894DEBF0FBECDBFDF91CF91AB
:101270000895CF93DF9300D000D000D0CDB7DEB774
:1012800080915F071F928F9385EA91E09F938F93E0
:101290001F9286E08F938AE499E09F938F930E9438
:1012A000BA0E63E579E0CE0101960E94E2036981FE
:1012B0007A812AE730E040E050E080E796E00E9443
:1012C000880DCE0101960E94CA020FB6F894DEBFC7
:1012D0000FBECDBF26960FB6F894DEBF0FBECDBFB2
:1012E000DF91CF910895DC01ED91FC910190F081A7
:1012F000E02D09941F920F920FB60F9211242F9395
:101300003F934F935F936F937F938F939F93AF938D
:10131000BF93EF93FF938DEA97E00E949401FF91B2
:10132000EF91BF91AF919F918F917F916F915F915D
:101330004F913F912F910F900FBE0F901F901895D6
:101340001F920F920FB60F9211242F935F936F93FA
:101350007F938F939F93AF93BF93EF93FF93E0910E
:10136000BD07F091BE078081E091C307F091C407EB
:1013700082FD16C020818091C60790E0019660EC46
:1013800070E00E9427149091C707981751F0E091E0
:10139000C607F0E0E355F84F258F8093C60701C0DC
:1013A0008081FF91EF91BF91AF919F918F917F913C
:1013B0006F915F912F910F900FBE0F901F90189516
:1013C000682F8DEA97E00C94B8014F925F926F926C
:1013D0007F928F929F92AF92BF92CF92DF92EF92C5
:1013E000FF924B015C0197FF0CC08DE290E00E94E0
:1013F000E009B094A09490948094811C911CA11C4D
:10140000B11CC12CD12C7601C394C501B401A70134
:1014100096010E944F142A3031054105510548F0CC
:10142000AAE0B0E0A70196010E94D6136B017C01EF
:10143000ECCF8AE0482E512C612C712CC501B401EF
:10144000A70196010E944F14CA01B901A30192019C
:101450000E944F1480E3860F90E00E94E009C701CC
:10146000B601A30192010E944F1469017A01232B56
:10147000242B252B19F7FF90EF90DF90CF90BF9092
:10148000AF909F908F907F906F905F904F90089556
:10149000CF92DF92EF92FF92CF93DF93EC01892BF3
:1014A00009F44EC08881882309F44AC090EE980F51
:1014B0009F3520F4082E000C990B3EC08D3039F476
:1014C0008CE590E00E94E00982E790E035C08A3028
:1014D00039F48CE590E00E94E0098EE690E02CC0A3
:1014E0008CE590E00E94E00988E790E00E94E00926
:1014F000C8800C2C000CDD08EE08FF08D701C601DF
:1015000024E0B695A795979587952A95D1F78F7082
:1015100099278A30910514F0895C01C0805D90E0C4
:101520000E94E009C6018F7099278A30910514F056
:10153000895C01C0805D90E00E94E0092196B2CFF5
:10154000DF91CF91FF90EF90DF90CF900895CF92F1
:10155000DF92EF92FF926A017B010E94480A8AE3C0
:1015600090E00E94E009C701B6010E94E5098AE304
:1015700090E00E94E00980917807909179070E949D
:10158000480A8AE390E0FF90EF90DF90CF900C94B0
:10159000E009CF93DF9300D0CDB7DEB79A8389837C
:1015A000E6E7F7E073836283052E000C660B770B8A
:1015B000408751876287738784859585A685B7851F
:1015C0000196A11DB11D84879587A687B7871582CF
:1015D00014821782168286E997E00E947112892B85
:1015E00019F4E981FA81099586E997E00E94711260
:1015F000E6E7F7E0848D958DA68DB78D892B8A2B34
:101600008B2B61F084899589A689B7890196A11DE4
:10161000B11D848B958BA68BB78B20C0808D918D4F
:10162000A28DB38D892B8A2B8B2B69F44085518534
:1016300062857385808191810E94A70A86E091E08E
:101640000E94480A0BC080899189A289B3890196BA
:10165000A11DB11D808B918BA28BB38BE6E7F7E0C8
:10166000108E118E128E138E148E158E168E178E6E
:101670008AE090E00E94E0098DEA97E00E9405026E
:101680000F900F90DF91CF910895EF92FF920F93FB
:101690001F93CF93DF938C017B01C0E0D0E0F70173
:1016A000EC0FFD1F6491662361F0D801ED91FC9170
:1016B0000190F081E02DC8010995892B11F0219648
:1016C000EECFCE01DF91CF911F910F91FF90EF9060
:1016D00008956115710579F0FB0101900020E9F78B
:1016E0003197AF01461B570BDC01ED91FC91028055
:1016F000F381E02D099480E090E008958F929F920D
:10170000AF92BF92EF92FF920F931F93CF93DF930D
:10171000CDB7DEB7A1970FB6F894DEBF0FBECDBF31
:101720007C01FA01CB0119A2223008F42AE08E01D3
:101730000F5D1F4F822E912CA12CB12CBF01A50152
:1017400094010E944F14F901CA01015011096A3035
:1017500014F4605D01C0695CD8016C93232B242BC9
:10176000252B61F7B801C7010E94690BA1960FB63E
:10177000F894DEBF0FBECDBFDF91CF911F910F91C7
:10178000FF90EF90BF90AF909F908F9008950C9432
:10179000690B8F929F92AF92BF92CF92DF92EF929E
:1017A000FF92CF93DF93EB01882309F4A6C1853222
:1017B00011F465E24EC1833769F4E881F981CF0104
:1017C0000296998388836081718180914D099091FF
:1017D0004E0962C1843611F0893689F4E881F981B5
:1017E000CF01029699838883C080D180C0914D0932
:1017F000D0914E090D2C000CEE08FF080DC1982F5A
:101800009D7F943409F0B5C0E881F981CF01049639
:1018100099838883C080D180E280F380C0914D0994
:10182000D0914E09A7019601C701B6010E94181573
:10183000882319F063E377E01AC046015701E89462
:10184000B7F82FEF3FEF4FE75FE7C501B4010E9404
:101850001815811119C02FEF3FEF4FE75FE7C50162
:10186000B4010E94B21218167CF467E377E0CE014F
:10187000DF91CF91FF90EF90DF90CF90BF90AF902E
:101880009F908F900C94690B2FEF3FEF4FE75FE431
:10189000C701B6010E941315181654F02FEF3FEF41
:1018A0004FE75FECC701B6010E94B21287FF03C089
:1018B0006BE377E0DCCF20E030E0A901C701B6019F
:1018C0000E94B21287FF08C06DE2CE010E94730928
:1018D000F7FAF094F7F8F0942AE037ED43EA5BE387
:1018E000C701B6010E9478144B015C010E94E41408
:1018F0006B017C010E94B7129B01AC01C501B401D0
:101900000E9477144B015C012AE0B701A601CE01C9
:101910000E947E0B6EE2CE010E94730920E030E04F
:1019200040E251E4C501B4010E9418134B015C016F
:101930000E94E4146B01E12CF12C2AE0B701A6010E
:10194000CE010E947E0BC701B6010E94B7129B0117
:10195000AC01C501B4010E94771420E030E040E200
:1019600051E40E9418130E94E414AB0160E070E09F
:1019700065C0883751F08835B1F46FE377E0809126
:101980004D0990914E090E94C70BE881F981CF0162
:1019900002969983888340815181052E000C660B45
:1019A000770B20E119C0823651F0823429F562E4C8
:1019B00077E080914D0990914E090E94C70BE88114
:1019C000F981CF0102969983888340815181052E48
:1019D000000C660B770B22E080914D0990914E0927
:1019E000DF91CF91FF90EF90DF90CF90BF90AF90BD
:1019F0009F908F900C947E0B8C3611F5E881F981C5
:101A0000CF01049699838883C080D180E280F380DF
:101A1000C0914D09D0914E09F7FC05C02AE0B701ED
:101A2000A601CE01DDCF6DE2CE010E9473094427ED
:101A30005527BA014C195D096E097F092AE0F1CFDB
:101A40008336B9F4E881F981CF01029699838883BE
:101A5000608180914D0990914E09DF91CF91FF9067
:101A6000EF90DF90CF90BF90AF909F908F900C94AD
:101A70007309843701F5E881F981CF0102969983D2
:101A800088832081318180914D0990914E092130C8
:101A9000310571F465E477E0DF91CF91FF90EF902D
:101AA000DF90CF90BF90AF909F908F900C94C70B1A
:101AB00067E477E0F1CF843501F5E881F981CF0162
:101AC0000296998388832081318180914D0990917C
:101AD0004E092130310519F464ED71E002C06EEC5D
:101AE00071E0DF91CF91FF90EF90DF90CF90BF90AA
:101AF000AF909F908F900C94450BDF91CF91FF900A
:101B0000EF90DF90CF90BF90AF909F908F9008950F
:101B1000CF92DF92EF92FF920F931F93CF93DF93B9
:101B20008B01C0908E07D0908F07E0909007F090C7
:101B30009107CD28CE28CF2809F08FC0C0909207FA
:101B4000D0909307E0909407F0909507CD28CE2889
:101B5000CF2809F082C00097E1F06115710541F0CE
:101B6000DC01FB01CD91CC2381F0D191DC17D1F3C5
:101B7000C12CD12C7601C394C0928E07D0928F07CE
:101B8000E0929007F092910706C0D081D111EDCF7D
:101B900002C0672B69F7C0908E07D0908F07E09046
:101BA0009007F0909107CD28CE28CF2809F455C092
:101BB000BA01A901E8018C0180917607909177071D
:101BC0000E94A70A83E491E00E94480A8AE390E019
:101BD0000E94E00983E591E00E94480A0115110581
:101BE00061F087E290E00E94E009C8010E94480A83
:101BF00087E290E00E94E00904C08EE491E00E9438
:101C0000480A88E491E00E94480A209761F087E240
:101C100090E00E94E009CE010E94480A87E290E02D
:101C20000E94E00904C08EE491E00E94480A81E02D
:101C300090E0A0E0B0E080938E0790938F07A09390
:101C40009007B09391078DEA97E00E94050261E04A
:101C500070E086E997E00E949112DF91CF911F9189
:101C60000F91FF90EF90DF90CF900895EF92FF9249
:101C70000F931F93CF93DF93CDB7DEB727970FB6A0
:101C8000F894DEBF0FBECDBFEA88FB880C891D89A2
:101C900080914A0990914B098E159F050CF45DC007
:101CA000E0914F09F0915009309729F080914D094A
:101CB00090914E09099580914C09882319F187E08C
:101CC000EEE4F7E0DE01119601900D928A95E1F7BE
:101CD00069E477E080914D0990914E090E94C70B0D
:101CE000FE01EE0DFF1D608180914D0990914E091E
:101CF0000E9473096BE477E080914D0990914E0941
:101D00000E94C70BCE0146969A838983F8016081B1
:101D10006623C1F0653269F47801FFEFEF1AFF0A1C
:101D2000BE016F5F7F4FF80181810E94C90B87015F
:101D300006C080914D0990914E090E9473090F5F72
:101D40001F4FE4CFE0915109F0915209309729F0EB
:101D500080914D0990914E09099527960FB6F894F8
:101D6000DEBF0FBECDBFDF91CF911F910F91FF90CE
:101D7000EF900895EF92FF920F931F93CF93DF930D
:101D8000CDB7DEB727970FB6F894DEBF0FBECDBF35
:101D90000A891B89EC88FD8880914A0990914B093A
:101DA000801791070CF463C0E0914F09F09150093E
:101DB000309729F080914D0990914E0909958091B5
:101DC0004C09882319F187E0EEE4F7E0DE01119673
:101DD00001900D928A95E1F769E477E080914D09D1
:101DE00090914E090E94C70BFE01E00FF11F608128
:101DF00080914D0990914E090E9473096BE477E040
:101E000080914D0990914E090E94C70BCE014696D4
:101E10009A83898387010F5F1F4FF70164916623BF
:101E2000D9F0653269F47801FFEFEF1AFF0AF80183
:101E30008491BE016F5F7F4F0E94C90B870106C06E
:101E400080914D0990914E090E947309C801019635
:101E5000F80164918C01E3CFE0915109F0915209AE
:101E6000309729F080914D0990914E090995279658
:101E70000FB6F894DEBF0FBECDBFDF91CF911F919B
:101E80000F91FF90EF9008958F929F92AF92BF9223
:101E9000CF92DF92EF92FF926B017C010E9433039D
:101EA0004B015C01C114D104E104F104F1F00E9482
:101EB0003303DC01CB0188199909AA09BB09883EC3
:101EC0009340A105B10570F321E0C21AD108E108E1
:101ED000F10888EE880E83E0981EA11CB11CC11485
:101EE000D104E104F10419F7DDCFFF90EF90DF900A
:101EF000CF90BF90AF909F908F900895789484B5C5
:101F0000826084BD84B5816084BD85B5826085BDF5
:101F100085B5816085BD80916E00816080936E0083
:101F20001092810080918100826080938100809175
:101F30008100816080938100809180008160809326
:101F400080008091B10084608093B1008091B000E6
:101F500081608093B00080917A00846080937A00E1
:101F600080917A00826080937A0080917A0081600B
:101F700080937A0080917A00806880937A00109232
:101F8000C10060ED77E080E090E00E94440F80EABD
:101F900096E09093770780937607109279071092D6
:101FA000780710927E0710927F0710928007109298
:101FB0008107109282071092830710928407109273
:101FC0008507109286071092870710928807109253
:101FD000890710928A0710928B0710928C07109233
:101FE0008D0710928E0710928F0710929007109213
:101FF00091071092920710929307109294071092F3
:10200000950710927B0710927A0710927D07109225
:102010007C07E091BD07F091BE0782E08083E091EC
:10202000B907F091BA071082E091BB07F091BC07A5
:1020300080E180831092C507E091C107F091C2074B
:1020400086E08083E091BF07F091C00780818061C6
:102050008083E091BF07F091C00780818860808312
:10206000E091BF07F091C007808180688083E09194
:10207000BF07F091C00780818F7D808386E090E06C
:1020800090934B0980934A0981E080934C0983E542
:1020900099E090934E0980934D0904E610E0C0E169
:1020A000D7E2C12C81EED82E85EFE82E85E0F82E00
:1020B0003324339494EA892E90E7992E95E4A92E3F
:1020C00091E4B92E2CE2422E22E5522E2AE9622E0C
:1020D00024E4722E10936C0700936B07D0936A0769
:1020E000C093690780E492E4AFE0B0E080936507B5
:1020F00090936607A0936707B0936807C092610743
:10210000D0926207E0926307F09264073092600712
:1021100010925F0780925B0790925C07A0925D0728
:10212000B0925E0740925707509258076092590745
:1021300070925A074AE850E061EB76E084E794E059
:102140000E94C90A83E599E00E9406034CE850E02A
:1021500067EB76E08BEA94E00E94C90A83E599E098
:102160000E9406034EE850E06DEB76E08DEE94E0C1
:102170000E94C90A83E599E00E94060340E950E005
:1021800063EC76E08BE295E00E94C90A83E599E072
:102190000E94060342E950E069EC76E089E695E0AA
:1021A0000E94C90A83E599E00E94060344E950E0D1
:1021B0006FEC76E087EA95E00E94C90A83E599E032
:1021C0000E94060346E950E065ED76E085EE95E075
:1021D0000E94C90A83E599E00E94060348E950E09D
:1021E0006BED76E083E396E00E94C90A83E599E00F
:1021F0000E9406034AE950E061EE76E081E796E04E
:102200000E94C90A83E599E00E9406034CE950E068
:1022100067EE76E08BEA96E00E94C90A83E599E0D2
:102220000E9406034EE950E06DEE76E087EE96E000
:102230000E94C90A83E599E00E94060340EA50E043
:1022400064EF76E089E297E00E94C90A83E599E0AD
:102250000E94060342EA50E06BEF76E08BE697E0DF
:102260000E94C90A83E599E00E94060344EA50E00F
:1022700062E077E08DEA97E00E94C90A83E599E081
:102280000E94060346EA50E069E077E08FEE97E0AF
:102290000E94C90A83E599E00E94060348EA50E0DB
:1022A00060E177E081E598E00E94C90A83E599E062
:1022B0000E9406034AEA50E067E177E08BE898E085
:1022C0000E94C90A83E599E00E9406034CEA50E0A7
:1022D0006EE177E085EC98E00E94C90A83E599E019
:1022E0000E9406034EEA50E065E277E08FEF98E047
:1022F0000E94C90A83E599E00E94060340EB50E082
:102300006CE277E089E399E00E94C90A8AE090E0F4
:102310000E94E0098BE291E00E94480A8AE090E086
:102320000E94E00960918207709183078091840781
:10233000909185070E94E50983E291E00E94480A96
:10234000609186077091870780918807909189072F
:102350000E94E50988E191E00E94480A60918A079D
:1023600070918B0780918C0790918D070E94E509F1
:102370008EE091E00E94480A8AE090E00E94E00925
:102380008091860790918707A0918807B09189076F
:10239000892B8A2B8B2B19F48BE091E002C083E40C
:1023A00091E00E94480A8AE090E00E94E0098DEAEC
:1023B00097E00E9405028DEA97E00E940502E091F5
:1023C000BF07F091C00780818F7E8083E091BF07B7
:1023D000F091C0078081877F8083E091BF07F091F3
:1023E000C00780818F778083E091BF07F091C0079D
:1023F00080818F7D80838091C7078093C60768E8BE
:1024000073E180E090E00E94440F0E94270262CEB8
:1024100085E699E00E94CA028BE699E00C94CA0214
:10242000CF92DF92EF92FF92EDEAF7E013821282F1
:1024300088EEC82E83E0D82EE12CF12CC482D58200
:10244000E682F78282E691E09183808385EC90E0DA
:102450009587848784EC90E09787868780EC90E06E
:10246000918B808B81EC90E0938B828B82EC90E05F
:10247000958B848B86EC90E0978B868B118E128ED9
:10248000138E148EEAE4F9E01182108281E08283D7
:1024900014821382168215821086178263EC73E011
:1024A0008BE699E00E94A2036FE976E085E699E069
:1024B0000E94A203E3E5F9E013821282C482D5826E
:1024C000E682F78284E791E09183808385E699E054
:1024D00095878487118A108AFF90EF90DF90CF90C4
:1024E0000895DC012D923D924D925D926D927D9208
:1024F0008D929D92AD92BD92CD92DD92ED92FD9224
:102500000D931D93CD93DD93FF91EF918DB78D9337
:102510008EB78D938FB78D93ED93FD938827992771
:102520000994DC01CB0181309105811D2D903D90F6
:102530004D905D906D907D908D909D90AD90BD90F3
:10254000CD90DD90ED90FD900D911D91CD91DD919F
:10255000ED91FD910D90F894FEBF0FBEEDBFED9192
:10256000FD9109940E94F41208F481E00895E89422
:1025700009C097FB3EF490958095709561957F4FCB
:102580008F4F9F4F9923A9F0F92F96E9BB27939579
:10259000F695879577956795B795F111F8CFFAF489
:1025A000BB0F11F460FF1BC06F5F7F4F8F4F9F4FBA
:1025B00016C0882311F096E911C0772321F09EE818
:1025C000872F762F05C0662371F096E8862F70E07E
:1025D00060E02AF09A95660F771F881FDAF7880F58
:1025E0009695879597F90895990F0008550FAA0BAE
:1025F000E0E8FEEF16161706E807F907C0F0121616
:102600001306E407F50798F0621B730B840B950B18
:1026100039F40A2661F0232B242B252B21F408956D
:102620000A2609F4A140A6958FEF811D811D08950A
:102630000E942B130C949C130E948E1338F00E945E
:10264000951320F0952311F00C9485130C948B13A3
:1026500011240C94D0130E94AD1370F3959FC1F315
:10266000950F50E0551F629FF001729FBB27F00D40
:10267000B11D639FAA27F00DB11DAA1F649F662795
:10268000B00DA11D661F829F2227B00DA11D621FE4
:10269000739FB00DA11D621F839FA00D611D221F9E
:1026A000749F3327A00D611D231F849F600D211D82
:1026B000822F762F6A2F11249F5750409AF0F1F005
:1026C00088234AF0EE0FFF1FBB1F661F771F881F6E
:1026D00091505040A9F79E3F510580F00C9485130E
:1026E0000C94D0135F3FE4F3983ED4F3869577952E
:1026F0006795B795F795E7959F5FC1F7FE2B880F14
:10270000911D9695879597F9089597F99F6780E8A9
:1027100070E060E008959FEF80EC089500240A9433
:102720001616170618060906089500240A941216AC
:102730001306140605060895092E0394000C11F4DF
:10274000882352F0BB0F40F4BF2B11F460FF04C08C
:102750006F5F7F4F8F4F9F4F089557FD9058440FE5
:10276000551F59F05F3F71F04795880F97FB991FF0
:1027700061F09F3F79F087950895121613061406AD
:10278000551FF2CF4695F1DF08C01616170618063A
:10279000991FF1CF86957105610508940895E89415
:1027A000BB2766277727CB0197F908950E94181455
:1027B000A59F900DB49F900DA49F800D911D112495
:1027C00008952F923F924F925F926F927F928F92D5
:1027D0009F92AF92BF92CF92DF92EF92FF920F93B0
:1027E0001F93CF93DF93CDB7DEB7CA1BDB0B0FB6BA
:1027F000F894DEBF0FBECDBF09942A883988488877
:102800005F846E847D848C849B84AA84B984C8840C
:10281000DF80EE80FD800C811B81AA81B981CE0F03
:10282000D11D0FB6F894DEBF0FBECDBFED010895E8
:10283000A29FB001B39FC001A39F700D811D112401
:10284000911DB29F700D811D1124911D0895AA1B29
:10285000BB1B51E107C0AA1FBB1FA617B70710F08B
:10286000A61BB70B881F991F5A95A9F780959095BD
:10287000BC01CD01089597FB072E16F4009407D0F4
:1028800077FD09D00E94271407FC05D03EF49095EF
:1028900081959F4F0895709561957F4F0895A1E2AE
:1028A0001A2EAA1BBB1BFD010DC0AA1FBB1FEE1FCA
:1028B000FF1FA217B307E407F50720F0A21BB30B15
:1028C000E40BF50B661F771F881F991F1A9469F791
:1028D00060957095809590959B01AC01BD01CF01ED
:1028E0000895EE0FFF1F0590F491E02D09945058C4
:1028F000BB27AA270E948F140C949C130E948E134E
:1029000038F00E94951320F039F49F3F19F426F413
:102910000C948B130EF4E095E7FB0C948513E92FD0
:102920000E94AD1358F3BA1762077307840795071F
:1029300020F079F4A6F50C94CF130EF4E0950B2E4D
:10294000BA2FA02D0B01B90190010C01CA01A00101
:102950001124FF27591B99F0593F50F4503E68F15C
:102960001A16F040A22F232F342F4427585FF3CF9D
:10297000469537952795A795F0405395C9F77EF46E
:102980001F16BA0B620B730B840BBAF09150A1F0B7
:10299000FF0FBB1F661F771F881FC2F70EC0BA0F3D
:1029A000621F731F841F48F4879577956795B795C5
:1029B000F7959E3F08F0B0CF9395880F08F09927C0
:1029C000EE0F9795879508950E94B51388F09F574D
:1029D00098F0B92F9927B751B0F0E1F0660F771F43
:1029E000881F991F1AF0BA95C9F714C0B13091F039
:1029F0000E94CF13B1E008950C94CF13672F782F66
:102A00008827B85F39F0B93FCCF3869577956795FD
:102A1000B395D9F73EF490958095709561957F4F69
:102A20008F4F9F4F08950E94F41208F48FEF08957E
:102A30000E94F412880B990B08950F931F93CF9364
:102A4000DF938230910510F482E090E0E091730909
:102A5000F091740920E030E0A0E0B0E0309719F187
:102A6000408151810281138148175907C8F08417AA
:102A7000950769F4109731F012960C9312971396FC
:102A80001C9327C0009373091093740922C0211569
:102A9000310519F04217530718F49A01BD01EF01EF
:102AA000DF01F801DBCF21153105F9F0281B390BC7
:102AB0002430310580F48A819B816115710521F0F4
:102AC000FB019383828304C09093740980937309FC
:102AD000FE01329644C0FE01E20FF31F81939193F1
:102AE00022503109398328833AC0209171093091ED
:102AF0007209232B41F4209102013091030130939C
:102B00007209209371092091000130910101211572
:102B1000310541F42DB73EB74091040150910501B4
:102B2000241B350BE0917109F0917209E217F3074C
:102B3000A0F42E1B3F0B2817390778F0AC014E5F2D
:102B40005F4F2417350748F04E0F5F1F50937209EF
:102B5000409371098193919302C0E0E0F0E0CF01CE
:102B6000DF91CF911F910F910895CF93DF9300973D
:102B700009F481C0FC01329713821282A09173097B
:102B8000B0917409109781F420813181820F931FD5
:102B900020917109309172092817390751F5F09386
:102BA0007209E093710967C0ED0120E030E0CE17B3
:102BB000DF0740F44A815B819E0141155105F1F028
:102BC000EA01F5CFD383C28340815181840F951FE1
:102BD000C817D90759F488819981840F951F0296E7
:102BE000918380838A819B81938382832115310520
:102BF00029F4F0937409E09373093DC0E901FB8364
:102C0000EA8349915991C40FD51FEC17FD0761F470
:102C100080819181840F951F0296E90199838883B1
:102C2000828193819B838A83E0E0F0E012968D910C
:102C30009C911397009719F0FD01DC01F7CF8D915E
:102C40009C9111979D012E5F3F4F820F931F209102
:102C50007109309172092817390769F4309729F4FE
:102C6000109274091092730902C013821282B093F9
:102C70007209A0937109DF91CF910895A0E0B0E0AF
:102C8000E4E4F6E10C94E513EC01009721F4CB01A8
:102C90000E941D15B4C0FC01E60FF71F9C012250D5
:102CA0003109E217F30708F4A8C0D9010D911C916E
:102CB000119706171707B0F00530110508F49BC0EF
:102CC000C80104978617970708F495C002501109A8
:102CD000061B170B019311936D937C93CF010E94F8
:102CE000B51589C05B01A01AB10A4C01800E911E76
:102CF000A0917309B0917409612C712CE12CF12C15
:102D0000109709F446C08D919C911197A815B905AB
:102D1000B1F56C0142E0C40ED11CCA14DB0478F199
:102D20004C018A189B08640142E0C40ED11C129623
:102D3000BC9012971396AC91B5E0CB16D10440F03D
:102D4000B282A38391828082D9016D937C9309C062
:102D50000E5F1F4F800F911FF90191838083EB2D30
:102D6000FA2FE114F10431F0D7011396FC93EE939E
:102D7000129741C0F0937409E09373093CC0681640
:102D8000790608F43C017D0112960D90BC91A02DAE
:102D9000B7CF809171099091720988169906E1F474
:102DA00066167706C8F480910001909101010097A2
:102DB00041F48DB79EB74091040150910501841BE9
:102DC000950BE817F907C8F4F0937209E0937109BD
:102DD000F901718360830FC0CB010E941D157C0136
:102DE000009759F0A801BE010E940917CE010E9468
:102DF000B515C70104C0CE0102C080E090E0CDB798
:102E0000DEB7EEE00C94011481E090E0F8940C94AD
:102E10001917FB01DC0102C001900D924150504096
:102E2000D8F70895FB01DC0101900D920020E1F735
:102E3000089510E0CEEED0E004C0FE010E947114AF
:0C2E40002196CF3ED107C9F7F894FFCFD0
:102E4C0000007509200050415353004F4B0020499E
:102E5C00676E6F7265642000204661696C757265DF
:102E6C0073200020546573747320002D2D2D2D2D8F
:102E7C002D2D2D2D2D2D2D2D2D2D2D2D2D2D2D2D76
:102E8C002D2D004641494C002057617320004E55B2
:102E9C004C4C00204578706563746564200000001C
:102EAC000000B8011901430105027C0153016E01B8
:102EBC0000000000D20219019E0206039102640276
:102ECC004202E203234E3A204C6F6767696E67201B
:102EDC006578616D706C650A004C6F6720617320BA
:102EEC00496E666F207769746820696E74656765D2
:102EFC00722076616C756573203A2025642C202530
:102F0C00640A00234E3A204C6F6720617320496E8F
:102F1C00666F207769746820696E746567657220C6
:102F2C0076616C756573203A203130302C2031304D
:102F3C003030300A00234E3A204C6F6720617320EA
:102F4C00496E666F207769746820686578207661B1
:102F5C006C75657320202020203A2036342C2030CC
:102F6C007836340A004C6F6720617320496E666FA7
:102F7C002077697468206865782076616C75657354
:102F8C0020202020203A2025782C2025580A0023A8
:102F9C004E3A204C6F6720617320496E666F207724
:102FAC00697468206865782076616C75657320207B
:102FBC002020203A20323731302C203078323731F3
:102FCC00300A00234E3A204C6F6720617320496E03
:102FDC00666F20776974682062696E6172792076F9
:102FEC00616C75657320203A2031313030313030CE
:102FFC002C203062313130303130300A004C6F6768
:10300C0020617320496E666F20776974682062694D
:10301C006E6172792076616C75657320203A20257B
:10302C00622C2025420A00234E3A204C6F67206107
:10303C007320496E666F20776974682062696E61CF
:10304C0072792076616C75657320203A20313030AE
:10305C0031313130303031303030302C2030623141
:10306C00303031313130303031303030300A0023B3
:10307C004E3A204C6F6720617320496E666F207743
:10308C00697468206C6F6E672076616C756573204F
:10309C002020203A20313030303030302C2031306C
:1030AC00303030303030300A004C6F672061732084
:1030BC00496E666F207769746820626F6F6C20763A
:1030CC00616C756573202020203A2025742C2025F6
:1030DC00540A00234E3A204C6F6720617320496ECE
:1030EC00666F207769746820626F6F6C2076616CF4
:1030FC00756573202020203A20542C2066616C7357
:10310C00650A007468697320697320612073747296
:10311C00696E6700234E3A204C6F6720617320491B
:10312C006E666F207769746820737472696E67209D
:10313C0076616C75652020203A207468697320696B
:10314C0073206120737472696E670A004C6F67207C
:10315C00617320496E666F2077697468207374728E
:10316C00696E672076616C75652020203A20257386
:10317C000A00234E3A204C6F6720617320496E661B
:10318C006F207769746820666C6F61742076616C4F
:10319C0075652020203A2031322E33340A004C6FD2
:1031AC006720617320496E666F20776974682066AA
:1031BC006C6F61742076616C75652020203A202537
:1031CC00460A00234E3A204C6F6720617320496EEB
:1031DC00666F207769746820646F75626C65207601
:1031EC00616C75652020203A20313233342E35370E
:1031FC000A004C6F6720617320496E666F207769F7
:10320C00746820646F75626C652076616C756520DE
:10321C0020203A2025440A00234E3A204C6F672088
:10322C0061732044656275672077697468206D69E5
:10323C007865642076616C75657320203A20313096
:10324C00302C2031303030302C2031303030303098
:10325C00302C203130303030303030302C20542C69
:10326C002066616C73650A004C6F67206173205493
:10327C0072616365207769746820626F6F6C207669
:10328C00616C7565202020203A2025540A002354B7
:10329C003A204C6F6720617320547261636520770C
:1032AC0069746820626F6F6C2076616C7565202084
:1032BC0020203A20747275650A004C6F6720617388
:1032CC00205761726E696E67207769746820626F2F
:1032DC006F6C2076616C756520203A2025540A00AD
:1032EC0023573A204C6F67206173205761726E69C7
:1032FC006E67207769746820626F6F6C2076616CE2
:10330C00756520203A20747275650A004C6F672031
:10331C006173204572726F72207769746820626FD6
:10332C006F6C2076616C7565202020203A20255426
:10333C000A0023453A204C6F672061732045727256
:10334C006F72207769746820626F6F6C2076616C85
:10335C007565202020203A20747275650A004C6F28
:10336C006720617320466174616C207769746820F2
:10337C00626F6F6C2076616C7565202020203A207E
:10338C0025540A0023463A204C6F6720617320466F
:10339C006174616C207769746820626F6F6C207641
:1033AC00616C7565202020203A20747275650A00C6
:1033BC0023563A204C6F6720617320566572626FFA
:1033CC007365207769746820626F6F6C2076616C0E
:1033DC0075652020203A2066616C73650A0A0A0024
:1033EC00746573742F6C6F6767696E672E6370708A
:1033FC000074657374300074657374310074657394
:10340C0074320074657374330074657374340074AF
:10341C006573743500746573743600746573743732
:10342C000074657374380074657374390074657353
:10343C007431300074657374313100746573743198
:10344C0032007465737431330074657374313400F5
:10345C00746573743135007465737431360074653A
:10346C007374313700746573743138007465737418
:10347C003139006E616E00696E66006F76660030E1
:10348C0078003062005400460023003A2000464584
:06349C00574E54560000DB
:00000001FF
